S01E00004D6173746572204D6963726F636F6E74726F6C6C65722E737265633C
S11300000C9434000C9451000C9451000C94510045
S11300100C9451000C9451000C9451000C94510018
S11300200C9451000C9451000C9451000C94510008
S11300300C9451000C9451000C9451000C945100F8
S11300400C9451000C9451000C9451000C945100E8
S11300500C9451000F055705E305E905EF05F50577
S1130060FB059F0501060A0511241FBECFE5D8E054
S1130070DEBFCDBF12E0A0E6B0E0E6E1F0E102C0F1
S113008005900D92A831B107D9F722E0A8E1B2E0BA
S113009001C01D92AB31B207E1F70E942C030C940E
S11300A009080C9400008130F9F030F08230A1F19D
S11300B0833009F449C00895413041F018F04230CA
S11300C051F008958AB3682B6ABB08958AB360958A
S11300D068236ABB08958AB3962F909589238ABBB7
S11300E08BB3682B6BBB0895413041F018F042305C
S11300F051F0089587B3682B67BB089587B3609563
S1130100682367BB089587B3962F9095892387BB8F
S113011088B3682B68BB0895413041F018F0423031
S113012051F0089584B3682B64BB089584B360953B
S1130130682364BB089584B3962F9095892384BB68
S113014085B3682B65BB0895413041F018F0423007
S113015051F0089581B3682B61BB089581B3609514
S1130160682361BB089581B3962F9095892381BB41
S113017082B3682B62BB08958130A1F028F08230ED
S1130180F9F0833059F10895442319F0413031F0E6
S113019008958BB3609568236BBB08958BB3682B6C
S11301A06BBB0895442319F0413031F0089588B3AE
S11301B06095682368BB089588B3682B68BB08956D
S11301C0442319F0413031F0089585B360956823D4
S11301D065BB089585B3682B65BB0895442319F066
S11301E0413031F0089582B36095682362BB08956D
S11301F082B3682B62BB0895813061F028F08230AD
S113020079F0833099F018C089B3682381E0A9F4A8
S113021080E0089586B3682381E079F480E008954E
S113022083B3682381E049F480E0089580B36823B0
S113023081E019F480E0089580E00895E199FECF0B
S11302409FBB8EBBE09A8DB30895E199FECF411513
S1130250510591F0460F571FFB019C01261B370BDC
S1130260B9019B012E0F3F1F3FBB2EBBE09A9DB3EC
S11302709193E417F507A9F70895E199FECF9FBB81
S11302808EBBE09A8DB3861719F06DBBE29AE19AA2
S1130290089541155105C9F0460F571FFB019C01F4
S11302A0261B370BB901E199FECF9B012E0F3F1F8F
S11302B03FBB2EBBE09A2DB39191291719F09DBB3A
S11302C0E29AE19AE417F50771F7089540E067E0D0
S11302D083E00E94530042E068E783E00E945300F9
S11302E041E067E083E00E94BC0008955F926F9252
S11302F07F928F929F92AF92BF92CF92DF92EF92B2
S1130300FF920F931F93CF93DF93C0E0D0E0AA2412
S1130310A394B12C6894CC24C3F8D12C4E0175015C
S11303200C2E02C0EE0CFF1C0A94E2F75E2C40E097
S11303306E2D83E00E94BC00612C712C8301B601F8
S1130340062C02C0660F771F0A94E2F783E00E942E
S1130350FC0081111AC08FEF96E721E08150904094
S11303602040E1F700C00000C301880F991F080F67
S1130370191F005A1F4FF801E80DF91DC08141E013
S1130380652D83E00E94BC0012C08FEF681A780AC2
S113039094E06916710491F641E06E2D83E00E94A9
S11303A0BC002196C330D10509F0B8CFCFEF8C2F14
S11303B0DF91CF911F910F91FF90EF90DF90CF903D
S11303C0BF90AF909F908F907F906F905F900895B3
S11303D040E068E081E00E94BC0087EC90E0019777
S11303E0F1F700C0000041E068E081E00E94BC0039
S11303F00895CF93C82F40E064E081E00E94BC00E0
S113040040E062E081E00E94BC004C2F441F44277E
S1130410441F60E880E00E94BC00C6FB442740F90A
S113042060E480E00E94BC00C5FB442740F960E220
S113043080E00E94BC00C4FB442740F960E180E0F6
S11304400E94BC000E94E801C3FB442740F960E815
S113045080E00E94BC00C2FB442740F960E480E0D5
S11304600E94BC00C1FB442740F960E280E00E9486
S1130470BC004C2F417060E180E00E94BC000E94EF
S1130480E801CF910895CF93C82F40E064E081E064
S11304900E94BC0041E062E081E00E94BC004C2F5D
S11304A0441F4427441F60E880E00E94BC00C6FB50
S11304B0442740F960E480E00E94BC00C5FB442767
S11304C040F960E280E00E94BC00C4FB442740F98C
S11304D060E180E00E94BC000E94E801C3FB442765
S11304E040F960E880E00E94BC00C2FB442740F968
S11304F060E480E00E94BC00C1FB442740F960E254
S113050080E00E94BC004C2F417060E180E00E94BA
S1130510BC000E94E801CF91089540E060EF80E0C4
S11305200E94530040E06EE081E00E94530041E0ED
S113053068E081E00E94BC002FEF80E792E0215048
S113054080409040E1F700C0000040E064E081E0BA
S11305500E94BC0040E062E081E00E94BC0040E0F8
S113056060E880E00E94BC0040E060E480E00E941B
S1130570BC0041E060E280E00E94BC0040E060E139
S113058080E00E94BC000E94E8018CE20E94F90114
S11305908FE99FE00197F1F700C000008FE00E940F
S11305A0F9018FE99FE00197F1F700C0000081E0B5
S11305B00E94F9018FE39FE10197F1F700C0000069
S11305C086E00E94F9018FE99FE00197F1F700C0EE
S11305D0000008950E9443020895CF93DF93EC0135
S11305E08881882331F021960E94430289918111E8
S11305F0FBCFDF91CF91089581E00E94F9018FE351
S11306009FE10197F1F700C000000895823010F4D3
S1130610603150F082E00E94F9018FE39FE101977D
S1130620F1F700C000000895882329F0813011F407
S1130630605C01C060E0862F80680E94F9018FE34E
S11306409FE10197F1F700C00000089540E00E9487
S11306505300089508950895CF93DF93CDB7DEB77F
S113066028970FB6F894DEBF0FBECDBF85B362E006
S11306700E94260385B367E00E9426030E948D0230
S11306800E9466010E94D7078CE690E00E94ED026A
S113069060E081E00E9406038DE790E00E94ED0295
S11306A02FEF33ED80E3215030408040E1F700C06C
S11306B000000E94FC0280E091E00E941E01813053
S11306C009F478C089E890E00E94ED0260E081E0DE
S11306D00E94060383E990E00E94ED029FEFE3EDA0
S11306E0F0E39150E040F040E1F700C000000E94C8
S11306F0FC028EE990E00E94ED0260E081E00E943D
S113070006038BEA90E00E94ED028FEF89838A83CF
S11307108B838C839E012F5F3F4F790119E00E94E8
S113072076018F3FE1F3F70181937F010E94EA0292
S1130730FFEF25EA3EE0F15020403040E1F700C0F1
S11307400000612F81E00E9406038AE20E94EA020F
S11307508FEF91EEE4E081509040E040E1F700C07B
S113076000001F5F1D30D9F644E050E0BE016F5F0A
S11307707F4F81E091E00E94490161E080E091E0D7
S11307800E943D010E94FC0285EB90E00E94ED0274
S1130790FFEF29E638E1F15020403040E1F700C096
S11307A000000E94FC0260E085E091E00E943D01AF
S11307B0B12C05C085E091E00E941E01B82E00E036
S11307C00F2EF2E3AF2EF02DCC24CA940F2EFAE0B4
S11307D08F2EF02D0F2EF9E09F2EF02D8091180210
S11307E08130E1F40E94F90710921A021092190262
S11307F01092180285B362E00E942B030E94FC024F
S113080080EC90E00E94ED028FEF93EDE0E38150E5
S11308109040E040E1F700C0000002C00111D5C0E3
S113082000E0F1E0BF1229C00E94FC0280ED90E0DC
S11308300E94ED0260E081E00E9406038EED90E0EC
S11308400E94ED0285B367E00E942A0324E53DEC93
S11308508DE293E02150304080409040D9F700C0B1
S113086000C0000085B367E00E942B0360E085E0D0
S113087091E00E943D0100E0B12CCD82CE82CF8276
S1130880C886C982CA82CB82CC82DA2CD01A0E9452
S1130890FC028EEE90E00E94ED0260E081E00E9496
S11308A0060389EF90E00E94ED02EFEFF3EC29E0FC
S11308B0E150F0402040E1F700C000007E0135E047
S11308C0E30EF11C1BE00E9476018F3FE1F3F70178
S11308D081937F010E94EA02FFEF25EA3EE0F15096
S11308E020403040E1F700C00000612F81E00E9409
S11308F006038AE20E94EA028FEF91EEE4E081505F
S11309009040E040E1F700C000001F5F1F30D9F6BF
S113091044E050E0BE016F5F7F4F81E091E00E94B0
S1130920250144E0BE016F5F7F4FCE0105960E9412
S1130930C206813009F50E94FC0285E091E00E9424
S1130940ED0260E081E00E94060380E191E00E94F4
S1130950ED02FFEF29E638E1F15020403040E1F7A5
S113096000C0000085B362E00E942A030E94E307EE
S11309700E94FC0201E029C00F5F0E94FC028EE18C
S113098091E00E94ED0260E081E00E94060389E2AA
S113099091E00E94ED028D2D0E94EA028FEF93ED0B
S11309A0E0E381509040E040E1F700C000000E9485
S11309B0FC02DA94033008F46ACF61E085E091E048
S11309C00E943D01BB24B3942CCF11E06894DD2434
S11309D0D1F80F2EF7E03F2EF02D6894EE24E3F8C3
S11309E00F2EF6E04F2EF02D6894552452F80F2E5A
S11309F0F5E06F2EF02D0F2EF3E07F2EF02DA4C125
S1130A00FA013197EA30F10508F0A2C1E65DFF4F23
S1130A100C940308882309F4FAC01E2D95C10E9482
S1130A20FC0285E391E00E94ED0260E081E00E9417
S1130A30060385E491E00E94ED02802F0E94E40603
S1130A40F82EFFEF23EC39E0F15020403040E1F77D
S1130A5000C0000081E3F81609F47EC192E3F916A0
S1130A6009F47CC1E3E3FE1609F47AC1F4E3FF164A
S1130A7009F478C12FEFF216A1F00E94FC0285E57B
S1130A8091E00E94ED023FEF89E698E13150804009
S1130A909040E1F700C000008FEC8F0D843008F423
S1130AA053C180911802882309F4B9CF4DC10E9423
S1130AB0FC0281E691E00E94ED0260E081E00E9488
S1130AC0060384E791E00E94ED02802F0E94E40671
S1130AD0F82EEFEFF3EC29E0E150F0402040E1F78D
S1130AE000C0000031E3831709F43EC182E3F81625
S1130AF009F43CC193E3F91609F43AC1E4E3FE16A0
S1130B0009F438C1FFEFFF16A1F00E94FC0285E54D
S1130B1091E00E94ED022FEF39E688E12150304048
S1130B208040E1F700C000008FEC8F0D843008F4A2
S1130B300BC180911802882309F4B9CF05C10E9422
S1130B40FC0285E891E00E94ED0260E081E00E94F1
S1130B50060388E991E00E94ED02802F0E94E406DA
S1130B60F82E9FEFE3ECF9E09150E040F040E1F71C
S1130B7000C0000021E3821709F4FEC032E38317AA
S1130B8009F4FCC080E3F81609F4FAC09FEFF916E3
S1130B90A1F00E94FC0285E591E00E94ED02EFEFD6
S1130BA0F9E628E1E150F0402040E1F700C0000000
S1130BB080ED8F0D833008F4C7C08091180288231C
S1130BC009F4BDCFC1C0602F872D0E94FA0611E041
S1130BD0BBC0602F852D0E94FA0611E0B5C0602FBE
S1130BE0862D0E94FA0611E0AFC0602F842D0E946A
S1130BF0FA061D2DA9C0602F832D0E94FA061D2D13
S1130C00A3C0602F892D0E94FA061E2D9DC00E944C
S1130C10FC0289EA91E00E94ED028FED0E94EA0253
S1130C2083E40E94EA026BE080E00E9406033FEF47
S1130C3083EC99E0315080409040E1F700C000001F
S1130C40802F0E94E406EFEFF4E32CE0E150F04043
S1130C502040E1F700C0000090911802913009F49F
S1130C606EC00F2EF0EDFF2EF02DF80E39E03F157B
S1130C7080F40E94FC0285E591E00E94ED028FEF72
S1130C8099E6E8E181509040E040E1F700C00000BF
S1130C904FC00E94EA02802F0E94E406FFEF24E383
S1130CA03CE0F15020403040E1F700C0000090915A
S1130CB01802913009F445C010ED180F1A3080F075
S1130CC00E94FC0285E591E00E94ED028FEF99E617
S1130CD0E8E181509040E040E1F700C0000028C006
S1130CE00E94EA02FF0C8F2D880F880FF80E1F0D4B
S1130CF080E40E94DE07FFEF23EC39E0F15020404E
S1130D003040E1F700C00000812F0E94DE070E94FE
S1130D10FC0287EB91E00E94ED028FEF99E6E8E197
S1130D2081509040E040E1F700C0000011110BC079
S1130D3080911802882309F46ACF1E2D05C01E2D48
S1130D4003C01E2D01C01E2D80911802412F50E0BA
S1130D50813009F055CE42CD172DF6CF152DF4CFA5
S1130D60162DF2CF1D2DF0CF142DEECF132DECCF79
S1130D701E2DEACF11E0E8CF182DE6CF192DE4CFD0
S1130D801D2DE2CF4423D1F0FC013081FB012081F1
S1130D90321316C0FC013196DB011196415050E02C
S1130DA04F5F5F4F480F591F04C021919D91291334
S1130DB009C0E417F507C9F781E0089581E00895B3
S1130DC080E0089580E00895CF93C82F80911902A0
S1130DD090911A028838934138F0C13029F481E0A7
S1130DE0809318028FEF04C00E9476018F3F71F345
S1130DF0CF9108958F929F92AF92BF92CF92DF923C
S1130E00EF92FF920F931F93CF93DF93D82FE62E89
S1130E1000E0F12C10E00F2EF3E18F2EF02D0F2EB9
S1130E20F5E19F2EF02D0F2EF4E1AF2EF02D0F2EB5
S1130E30F6E1BF2EF02D0F2EF1E1CF2EF02D0F2E67
S1130E40F2E1DF2EF02D0E94FC02D53011F128F4DE
S1130E50D33049F0D43091F047C0D73081F120F13C
S1130E60D930C1F141C088EC91E00E94ED0201E368
S1130E700F2EF1E2FF2EF02D1C2D36C081ED91E0F6
S1130E800E94ED0202E30F2EF2E2FF2EF02D1D2D43
S1130E902BC08AED91E00E94ED0203E30F2EF3E2F2
S1130EA0FF2EF02D182D20C083EE91E00E94ED025C
S1130EB004E30F2EF4E2FF2EF02D1A2D15C08CEE54
S1130EC091E00E94ED0205E30F2EF5E2FF2EF02DD6
S1130ED0192D0AC082EF91E00E94ED0206E30F2E65
S1130EE0F6E2FF2EF02D1B2D812F0E94DE072FEF3F
S1130EF081EE94E0215080409040E1F700C0000072
S1130F008FEF0E94DE07813029F48FEF91E00E9479
S1130F10ED0204C082E092E00E94ED0260E081E014
S1130F200E94060386E092E00E94ED028E2D0E944C
S1130F30E406C82F2FEF81EE94E0215080409040CA
S1130F40E1F700C00000C13321F48F2D0E94DE07B9
S1130F5021C0C23321F4802F0E94DE071BC0CF3F83
S1130F60A1F0C033B9F00E94FC0285E591E00E9433
S1130F70ED022FEF89E698E1215080409040E1F79F
S1130F8000C00000C053C33028F0809118028823A9
S1130F9009F459CFDF91CF911F910F91FF90EF90FA
S1130FA0DF90CF90BF90AF909F908F90089587B3BC
S1130FB0806B87BB8DB181658DB908958FB9779B9F
S1130FC0FECF8FB108958EE48CBF83B7886083BF52
S1130FD083B78F7B83BF83B7816083BF83B78D7FE4
S1130FE083BF83B7846083BF789489B7826089BFE5
S1130FF0089583B78E7F83BF83B78D7F83BF83B705
S11310008B7F83BF0895EE0FFF1F0590F491E02DB1
S10910100994F894FFCFDF
S11310163132333435363738392A302357656C63E1
S11310266F6D6520746F20736D61727400686F6DE7
S1131036652073797374656D004C6F67696E2066FD
S11310466F720066697273742074696D6500536506
S1131056742050617373776F726400506173737791
S11310666F72643A0050617373205361766564004D
S113107653657373696F6E2054696D656F7574007B
S11310864C6F67696E20626C6F636B656400776191
S11310966974203230207365636F6E6473004C6F1D
S11310A667696E206D6F646500456E7465722050C5
S11310B66173733A005269676874207061737300D0
S11310C64C6F67696E20537563636573730057725B
S11310D66F6E672050617373005472696573206C78
S11310E66566743A00313A526F6F6D3120323A5266
S11310F66F6F6D3500333A526F6F6D3320343A4D4E
S11311066F7265200057726F6E6720696E70757412
S113111600313A526F6F6D3420202020323A5456F3
S113112620202000333A41697220436F6E642E34C6
S11311363A52455400313A5365742074656D7065AE
S11311467261747572652000323A436F6E74726F01
S11311566C2020303A524554005365742074656DF2
S1131166702E3A5F5F200054656D70657261747508
S113117672652053656E7400526F6F6D3120533A59
S113118600526F6F6D3220533A00526F6F6D3320E9
S1131196533A00526F6F6D3420533A00545620531D
S11311A63A0041697220436F6E642E20533A004F11
S11311B64E004F464600312D4F6E20322D4F666647
S10B11C620302D5245540000B5
S9030000FC
